{
  "_format": "hh-sol-artifact-1",
  "contractName": "EthNft",
  "sourceName": "contracts/EthNft.sol",
  "abi": [
    {
      "inputs": [],
      "stateMutability": "nonpayable",
      "type": "constructor"
    },
    {
      "anonymous": false,
      "inputs": [
        {
          "indexed": true,
          "internalType": "address",
          "name": "owner",
          "type": "address"
        },
        {
          "indexed": true,
          "internalType": "address",
          "name": "approved",
          "type": "address"
        },
        {
          "indexed": true,
          "internalType": "uint256",
          "name": "tokenId",
          "type": "uint256"
        }
      ],
      "name": "Approval",
      "type": "event"
    },
    {
      "anonymous": false,
      "inputs": [
        {
          "indexed": true,
          "internalType": "address",
          "name": "owner",
          "type": "address"
        },
        {
          "indexed": true,
          "internalType": "address",
          "name": "operator",
          "type": "address"
        },
        {
          "indexed": false,
          "internalType": "bool",
          "name": "approved",
          "type": "bool"
        }
      ],
      "name": "ApprovalForAll",
      "type": "event"
    },
    {
      "anonymous": false,
      "inputs": [
        {
          "indexed": true,
          "internalType": "address",
          "name": "previousOwner",
          "type": "address"
        },
        {
          "indexed": true,
          "internalType": "address",
          "name": "newOwner",
          "type": "address"
        }
      ],
      "name": "OwnershipTransferred",
      "type": "event"
    },
    {
      "anonymous": false,
      "inputs": [
        {
          "indexed": true,
          "internalType": "address",
          "name": "from",
          "type": "address"
        },
        {
          "indexed": true,
          "internalType": "address",
          "name": "to",
          "type": "address"
        },
        {
          "indexed": true,
          "internalType": "uint256",
          "name": "tokenId",
          "type": "uint256"
        }
      ],
      "name": "Transfer",
      "type": "event"
    },
    {
      "inputs": [
        {
          "internalType": "address",
          "name": "to",
          "type": "address"
        },
        {
          "internalType": "uint256",
          "name": "tokenId",
          "type": "uint256"
        }
      ],
      "name": "approve",
      "outputs": [],
      "stateMutability": "nonpayable",
      "type": "function"
    },
    {
      "inputs": [
        {
          "internalType": "address",
          "name": "owner",
          "type": "address"
        }
      ],
      "name": "balanceOf",
      "outputs": [
        {
          "internalType": "uint256",
          "name": "",
          "type": "uint256"
        }
      ],
      "stateMutability": "view",
      "type": "function"
    },
    {
      "inputs": [],
      "name": "count",
      "outputs": [
        {
          "internalType": "uint256",
          "name": "",
          "type": "uint256"
        }
      ],
      "stateMutability": "view",
      "type": "function"
    },
    {
      "inputs": [
        {
          "internalType": "uint256",
          "name": "tokenId",
          "type": "uint256"
        }
      ],
      "name": "getApproved",
      "outputs": [
        {
          "internalType": "address",
          "name": "",
          "type": "address"
        }
      ],
      "stateMutability": "view",
      "type": "function"
    },
    {
      "inputs": [
        {
          "internalType": "address",
          "name": "owner",
          "type": "address"
        },
        {
          "internalType": "address",
          "name": "operator",
          "type": "address"
        }
      ],
      "name": "isApprovedForAll",
      "outputs": [
        {
          "internalType": "bool",
          "name": "",
          "type": "bool"
        }
      ],
      "stateMutability": "view",
      "type": "function"
    },
    {
      "inputs": [
        {
          "internalType": "string",
          "name": "uri",
          "type": "string"
        }
      ],
      "name": "isContentOwned",
      "outputs": [
        {
          "internalType": "bool",
          "name": "",
          "type": "bool"
        }
      ],
      "stateMutability": "view",
      "type": "function"
    },
    {
      "inputs": [
        {
          "internalType": "address",
          "name": "recipient",
          "type": "address"
        },
        {
          "internalType": "string",
          "name": "metadataURI",
          "type": "string"
        }
      ],
      "name": "mint",
      "outputs": [
        {
          "internalType": "uint256",
          "name": "",
          "type": "uint256"
        }
      ],
      "stateMutability": "nonpayable",
      "type": "function"
    },
    {
      "inputs": [],
      "name": "name",
      "outputs": [
        {
          "internalType": "string",
          "name": "",
          "type": "string"
        }
      ],
      "stateMutability": "view",
      "type": "function"
    },
    {
      "inputs": [],
      "name": "owner",
      "outputs": [
        {
          "internalType": "address",
          "name": "",
          "type": "address"
        }
      ],
      "stateMutability": "view",
      "type": "function"
    },
    {
      "inputs": [
        {
          "internalType": "uint256",
          "name": "tokenId",
          "type": "uint256"
        }
      ],
      "name": "ownerOf",
      "outputs": [
        {
          "internalType": "address",
          "name": "",
          "type": "address"
        }
      ],
      "stateMutability": "view",
      "type": "function"
    },
    {
      "inputs": [],
      "name": "renounceOwnership",
      "outputs": [],
      "stateMutability": "nonpayable",
      "type": "function"
    },
    {
      "inputs": [
        {
          "internalType": "address",
          "name": "to",
          "type": "address"
        },
        {
          "internalType": "string",
          "name": "uri",
          "type": "string"
        }
      ],
      "name": "safeMint",
      "outputs": [],
      "stateMutability": "nonpayable",
      "type": "function"
    },
    {
      "inputs": [
        {
          "internalType": "address",
          "name": "from",
          "type": "address"
        },
        {
          "internalType": "address",
          "name": "to",
          "type": "address"
        },
        {
          "internalType": "uint256",
          "name": "tokenId",
          "type": "uint256"
        }
      ],
      "name": "safeTransferFrom",
      "outputs": [],
      "stateMutability": "nonpayable",
      "type": "function"
    },
    {
      "inputs": [
        {
          "internalType": "address",
          "name": "from",
          "type": "address"
        },
        {
          "internalType": "address",
          "name": "to",
          "type": "address"
        },
        {
          "internalType": "uint256",
          "name": "tokenId",
          "type": "uint256"
        },
        {
          "internalType": "bytes",
          "name": "_data",
          "type": "bytes"
        }
      ],
      "name": "safeTransferFrom",
      "outputs": [],
      "stateMutability": "nonpayable",
      "type": "function"
    },
    {
      "inputs": [
        {
          "internalType": "address",
          "name": "operator",
          "type": "address"
        },
        {
          "internalType": "bool",
          "name": "approved",
          "type": "bool"
        }
      ],
      "name": "setApprovalForAll",
      "outputs": [],
      "stateMutability": "nonpayable",
      "type": "function"
    },
    {
      "inputs": [
        {
          "internalType": "bytes4",
          "name": "interfaceId",
          "type": "bytes4"
        }
      ],
      "name": "supportsInterface",
      "outputs": [
        {
          "internalType": "bool",
          "name": "",
          "type": "bool"
        }
      ],
      "stateMutability": "view",
      "type": "function"
    },
    {
      "inputs": [],
      "name": "symbol",
      "outputs": [
        {
          "internalType": "string",
          "name": "",
          "type": "string"
        }
      ],
      "stateMutability": "view",
      "type": "function"
    },
    {
      "inputs": [
        {
          "internalType": "uint256",
          "name": "tokenId",
          "type": "uint256"
        }
      ],
      "name": "tokenURI",
      "outputs": [
        {
          "internalType": "string",
          "name": "",
          "type": "string"
        }
      ],
      "stateMutability": "view",
      "type": "function"
    },
    {
      "inputs": [
        {
          "internalType": "address",
          "name": "from",
          "type": "address"
        },
        {
          "internalType": "address",
          "name": "to",
          "type": "address"
        },
        {
          "internalType": "uint256",
          "name": "tokenId",
          "type": "uint256"
        }
      ],
      "name": "transferFrom",
      "outputs": [],
      "stateMutability": "nonpayable",
      "type": "function"
    },
    {
      "inputs": [
        {
          "internalType": "address",
          "name": "newOwner",
          "type": "address"
        }
      ],
      "name": "transferOwnership",
      "outputs": [],
      "stateMutability": "nonpayable",
      "type": "function"
    }
  ],
  "bytecode": "0x60806040523480156200001157600080fd5b506040805180820182526006815265115d1a13999d60d21b6020808301918252835180850190945260048452631153919560e21b9084015281519192916200005c91600091620000eb565b50805162000072906001906020840190620000eb565b5050506200008f620000896200009560201b60201c565b62000099565b620001ce565b3390565b600780546001600160a01b038381166001600160a01b0319831681179093556040519116919082907f8be0079c531659141344cd1fd0a4f28419497f9722a3daafe3b4186f6b6457e090600090a35050565b828054620000f99062000191565b90600052602060002090601f0160209004810192826200011d576000855562000168565b82601f106200013857805160ff191683800117855562000168565b8280016001018555821562000168579182015b82811115620001685782518255916020019190600101906200014b565b50620001769291506200017a565b5090565b5b808211156200017657600081556001016200017b565b600281046001821680620001a657607f821691505b60208210811415620001c857634e487b7160e01b600052602260045260246000fd5b50919050565b611c4280620001de6000396000f3fe608060405234801561001057600080fd5b506004361061012c5760003560e01c80638da5cb5b116100ad578063c87b56dd11610071578063c87b56dd14610256578063d0def52114610269578063d204c45e1461027c578063e985e9c51461028f578063f2fde38b146102a25761012c565b80638da5cb5b1461020d57806395d89b41146102155780639f1cabc61461021d578063a22cb46514610230578063b88d4fde146102435761012c565b806323b872dd116100f457806323b872dd146101b957806342842e0e146101cc5780636352211e146101df57806370a08231146101f2578063715018a6146102055761012c565b806301ffc9a71461013157806306661abd1461015a57806306fdde031461016f578063081812fc14610184578063095ea7b3146101a4575b600080fd5b61014461013f36600461143b565b6102b5565b6040516101519190611586565b60405180910390f35b6101626102fd565b6040516101519190611ad2565b61017761030e565b6040516101519190611591565b6101976101923660046114a6565b6103a0565b6040516101519190611535565b6101b76101b2366004611412565b6103ec565b005b6101b76101c73660046112d8565b610484565b6101b76101da3660046112d8565b6104bc565b6101976101ed3660046114a6565b6104d7565b61016261020036600461128c565b61050c565b6101b7610550565b61019761059b565b6101776105aa565b61014461022b366004611473565b6105b9565b6101b761023e36600461138c565b6105e8565b6101b7610251366004611313565b6105fe565b6101776102643660046114a6565b61063d565b6101626102773660046113c6565b610648565b6101b761028a3660046113c6565b6106f5565b61014461029d3660046112a6565b61079a565b6101b76102b036600461128c565b6107c8565b60006001600160e01b031982166380ac58cd60e01b14806102e657506001600160e01b03198216635b5e139f60e01b145b806102f557506102f582610839565b90505b919050565b60006103096008610852565b905090565b60606000805461031d90611b4a565b80601f016020809104026020016040519081016040528092919081815260200182805461034990611b4a565b80156103965780601f1061036b57610100808354040283529160200191610396565b820191906000526020600020905b81548152906001019060200180831161037957829003601f168201915b5050505050905090565b60006103ab82610856565b6103d05760405162461bcd60e51b81526004016103c790611943565b60405180910390fd5b506000908152600460205260409020546001600160a01b031690565b60006103f7826104d7565b9050806001600160a01b0316836001600160a01b0316141561042b5760405162461bcd60e51b81526004016103c790611a13565b806001600160a01b031661043d610873565b6001600160a01b0316148061045957506104598161029d610873565b6104755760405162461bcd60e51b81526004016103c79061177f565b61047f8383610877565b505050565b61049561048f610873565b826108e5565b6104b15760405162461bcd60e51b81526004016103c790611a54565b61047f83838361096a565b61047f838383604051806020016040528060008152506105fe565b6000818152600260205260408120546001600160a01b0316806102f55760405162461bcd60e51b81526004016103c790611826565b60006001600160a01b0382166105345760405162461bcd60e51b81526004016103c7906117dc565b506001600160a01b031660009081526003602052604090205490565b610558610873565b6001600160a01b031661056961059b565b6001600160a01b03161461058f5760405162461bcd60e51b81526004016103c79061198f565b6105996000610a9d565b565b6007546001600160a01b031690565b60606001805461031d90611b4a565b60006009826040516105cb91906114ea565b9081526040519081900360200190205460ff166001149050919050565b6105fa6105f3610873565b8383610aef565b5050565b61060f610609610873565b836108e5565b61062b5760405162461bcd60e51b81526004016103c790611a54565b61063784848484610b92565b50505050565b60606102f582610bc5565b600060098260405161065a91906114ea565b9081526040519081900360200190205460ff166001141561068d5760405162461bcd60e51b81526004016103c790611aa5565b60006106996008610852565b90506106a56008610cde565b60016009846040516106b791906114ea565b908152604051908190036020019020805460ff9290921660ff199092169190911790556106e48482610ce7565b6106ee8184610dce565b9392505050565b6106fd610873565b6001600160a01b031661070e61059b565b6001600160a01b0316146107345760405162461bcd60e51b81526004016103c79061198f565b60006107406008610852565b905061074c6008610cde565b6107568382610e12565b6107608183610dce565b600160098360405161077291906114ea565b908152604051908190036020019020805460ff9290921660ff19909216919091179055505050565b6001600160a01b03918216600090815260056020908152604080832093909416825291909152205460ff1690565b6107d0610873565b6001600160a01b03166107e161059b565b6001600160a01b0316146108075760405162461bcd60e51b81526004016103c79061198f565b6001600160a01b03811661082d5760405162461bcd60e51b81526004016103c7906115f6565b61083681610a9d565b50565b6001600160e01b031981166301ffc9a760e01b14919050565b5490565b6000908152600260205260409020546001600160a01b0316151590565b3390565b600081815260046020526040902080546001600160a01b0319166001600160a01b03841690811790915581906108ac826104d7565b6001600160a01b03167f8c5be1e5ebec7d5bd14f71427d1e84f3dd0314c0f7b2291e5b200ac8c7c3b92560405160405180910390a45050565b60006108f082610856565b61090c5760405162461bcd60e51b81526004016103c790611733565b6000610917836104d7565b9050806001600160a01b0316846001600160a01b0316148061093e575061093e818561079a565b806109625750836001600160a01b0316610957846103a0565b6001600160a01b0316145b949350505050565b826001600160a01b031661097d826104d7565b6001600160a01b0316146109a35760405162461bcd60e51b81526004016103c79061163c565b6001600160a01b0382166109c95760405162461bcd60e51b81526004016103c7906116b8565b6109d483838361047f565b6109df600082610877565b6001600160a01b0383166000908152600360205260408120805460019290610a08908490611b07565b90915550506001600160a01b0382166000908152600360205260408120805460019290610a36908490611adb565b909155505060008181526002602052604080822080546001600160a01b0319166001600160a01b0386811691821790925591518493918716917fddf252ad1be2c89b69c2b068fc378daa952ba7f163c4a11628f55a4df523b3ef91a461047f83838361047f565b600780546001600160a01b038381166001600160a01b0319831681179093556040519116919082907f8be0079c531659141344cd1fd0a4f28419497f9722a3daafe3b4186f6b6457e090600090a35050565b816001600160a01b0316836001600160a01b03161415610b215760405162461bcd60e51b81526004016103c7906116fc565b6001600160a01b0383811660008181526005602090815260408083209487168084529490915290819020805460ff1916851515179055517f17307eab39ab6107e8899845ad3d59bd9653f200f220920489ca2b5937696c3190610b85908590611586565b60405180910390a3505050565b610b9d84848461096a565b610ba984848484610e2c565b6106375760405162461bcd60e51b81526004016103c7906115a4565b6060610bd082610856565b610bec5760405162461bcd60e51b81526004016103c7906118f2565b60008281526006602052604081208054610c0590611b4a565b80601f0160208091040260200160405190810160405280929190818152602001828054610c3190611b4a565b8015610c7e5780601f10610c5357610100808354040283529160200191610c7e565b820191906000526020600020905b815481529060010190602001808311610c6157829003601f168201915b505050505090506000610c8f610f47565b9050805160001415610ca3575090506102f8565b815115610cd5578082604051602001610cbd929190611506565b604051602081830303815290604052925050506102f8565b61096284610f68565b80546001019055565b6001600160a01b038216610d0d5760405162461bcd60e51b81526004016103c7906118bd565b610d1681610856565b15610d335760405162461bcd60e51b81526004016103c790611681565b610d3f6000838361047f565b6001600160a01b0382166000908152600360205260408120805460019290610d68908490611adb565b909155505060008181526002602052604080822080546001600160a01b0319166001600160a01b03861690811790915590518392907fddf252ad1be2c89b69c2b068fc378daa952ba7f163c4a11628f55a4df523b3ef908290a46105fa6000838361047f565b610dd782610856565b610df35760405162461bcd60e51b81526004016103c79061186f565b6000828152600660209081526040909120825161047f92840190611147565b6105fa828260405180602001604052806000815250610fea565b6000610e40846001600160a01b031661101d565b15610f3c57836001600160a01b031663150b7a02610e5c610873565b8786866040518563ffffffff1660e01b8152600401610e7e9493929190611549565b602060405180830381600087803b158015610e9857600080fd5b505af1925050508015610ec8575060408051601f3d908101601f19168201909252610ec591810190611457565b60015b610f22573d808015610ef6576040519150601f19603f3d011682016040523d82523d6000602084013e610efb565b606091505b508051610f1a5760405162461bcd60e51b81526004016103c7906115a4565b805181602001fd5b6001600160e01b031916630a85bd0160e11b149050610962565b506001949350505050565b604080518082019091526007815266697066733a2f2f60c81b602082015290565b6060610f7382610856565b610f8f5760405162461bcd60e51b81526004016103c7906119c4565b6000610f99610f47565b90506000815111610fb957604051806020016040528060008152506106ee565b80610fc38461102c565b604051602001610fd4929190611506565b6040516020818303038152906040529392505050565b610ff48383610ce7565b6110016000848484610e2c565b61047f5760405162461bcd60e51b81526004016103c7906115a4565b6001600160a01b03163b151590565b60608161105157506040805180820190915260018152600360fc1b60208201526102f8565b8160005b811561107b578061106581611b85565b91506110749050600a83611af3565b9150611055565b60008167ffffffffffffffff8111156110a457634e487b7160e01b600052604160045260246000fd5b6040519080825280601f01601f1916602001820160405280156110ce576020820181803683370190505b5090505b8415610962576110e3600183611b07565b91506110f0600a86611ba0565b6110fb906030611adb565b60f81b81838151811061111e57634e487b7160e01b600052603260045260246000fd5b60200101906001600160f81b031916908160001a905350611140600a86611af3565b94506110d2565b82805461115390611b4a565b90600052602060002090601f01602090048101928261117557600085556111bb565b82601f1061118e57805160ff19168380011785556111bb565b828001600101855582156111bb579182015b828111156111bb5782518255916020019190600101906111a0565b506111c79291506111cb565b5090565b5b808211156111c757600081556001016111cc565b600067ffffffffffffffff808411156111fb576111fb611be0565b604051601f8501601f19908116603f0116810190828211818310171561122357611223611be0565b8160405280935085815286868601111561123c57600080fd5b858560208301376000602087830101525050509392505050565b80356001600160a01b03811681146102f857600080fd5b600082601f83011261127d578081fd5b6106ee838335602085016111e0565b60006020828403121561129d578081fd5b6106ee82611256565b600080604083850312156112b8578081fd5b6112c183611256565b91506112cf60208401611256565b90509250929050565b6000806000606084860312156112ec578081fd5b6112f584611256565b925061130360208501611256565b9150604084013590509250925092565b60008060008060808587031215611328578081fd5b61133185611256565b935061133f60208601611256565b925060408501359150606085013567ffffffffffffffff811115611361578182fd5b8501601f81018713611371578182fd5b611380878235602084016111e0565b91505092959194509250565b6000806040838503121561139e578182fd5b6113a783611256565b9150602083013580151581146113bb578182fd5b809150509250929050565b600080604083850312156113d8578182fd5b6113e183611256565b9150602083013567ffffffffffffffff8111156113fc578182fd5b6114088582860161126d565b9150509250929050565b60008060408385031215611424578182fd5b61142d83611256565b946020939093013593505050565b60006020828403121561144c578081fd5b81356106ee81611bf6565b600060208284031215611468578081fd5b81516106ee81611bf6565b600060208284031215611484578081fd5b813567ffffffffffffffff81111561149a578182fd5b6109628482850161126d565b6000602082840312156114b7578081fd5b5035919050565b600081518084526114d6816020860160208601611b1e565b601f01601f19169290920160200192915050565b600082516114fc818460208701611b1e565b9190910192915050565b60008351611518818460208801611b1e565b83519083019061152c818360208801611b1e565b01949350505050565b6001600160a01b0391909116815260200190565b6001600160a01b038581168252841660208201526040810183905260806060820181905260009061157c908301846114be565b9695505050505050565b901515815260200190565b6000602082526106ee60208301846114be565b60208082526032908201527f4552433732313a207472616e7366657220746f206e6f6e20455243373231526560408201527131b2b4bb32b91034b6b83632b6b2b73a32b960711b606082015260800190565b60208082526026908201527f4f776e61626c653a206e6577206f776e657220697320746865207a65726f206160408201526564647265737360d01b606082015260800190565b60208082526025908201527f4552433732313a207472616e736665722066726f6d20696e636f72726563742060408201526437bbb732b960d91b606082015260800190565b6020808252601c908201527f4552433732313a20746f6b656e20616c7265616479206d696e74656400000000604082015260600190565b60208082526024908201527f4552433732313a207472616e7366657220746f20746865207a65726f206164646040820152637265737360e01b606082015260800190565b60208082526019908201527f4552433732313a20617070726f766520746f2063616c6c657200000000000000604082015260600190565b6020808252602c908201527f4552433732313a206f70657261746f7220717565727920666f72206e6f6e657860408201526b34b9ba32b73a103a37b5b2b760a11b606082015260800190565b60208082526038908201527f4552433732313a20617070726f76652063616c6c6572206973206e6f74206f7760408201527f6e6572206e6f7220617070726f76656420666f7220616c6c0000000000000000606082015260800190565b6020808252602a908201527f4552433732313a2062616c616e636520717565727920666f7220746865207a65604082015269726f206164647265737360b01b606082015260800190565b60208082526029908201527f4552433732313a206f776e657220717565727920666f72206e6f6e657869737460408201526832b73a103a37b5b2b760b91b606082015260800190565b6020808252602e908201527f45524337323155524953746f726167653a2055524920736574206f66206e6f6e60408201526d32bc34b9ba32b73a103a37b5b2b760911b606082015260800190565b6020808252818101527f4552433732313a206d696e7420746f20746865207a65726f2061646472657373604082015260600190565b60208082526031908201527f45524337323155524953746f726167653a2055524920717565727920666f72206040820152703737b732bc34b9ba32b73a103a37b5b2b760791b606082015260800190565b6020808252602c908201527f4552433732313a20617070726f76656420717565727920666f72206e6f6e657860408201526b34b9ba32b73a103a37b5b2b760a11b606082015260800190565b6020808252818101527f4f776e61626c653a2063616c6c6572206973206e6f7420746865206f776e6572604082015260600190565b6020808252602f908201527f4552433732314d657461646174613a2055524920717565727920666f72206e6f60408201526e3732bc34b9ba32b73a103a37b5b2b760891b606082015260800190565b60208082526021908201527f4552433732313a20617070726f76616c20746f2063757272656e74206f776e656040820152603960f91b606082015260800190565b60208082526031908201527f4552433732313a207472616e736665722063616c6c6572206973206e6f74206f6040820152701ddb995c881b9bdc88185c1c1c9bdd9959607a1b606082015260800190565b6020808252601390820152724e465420616c7265616479206d696e7465642160681b604082015260600190565b90815260200190565b60008219821115611aee57611aee611bb4565b500190565b600082611b0257611b02611bca565b500490565b600082821015611b1957611b19611bb4565b500390565b60005b83811015611b39578181015183820152602001611b21565b838111156106375750506000910152565b600281046001821680611b5e57607f821691505b60208210811415611b7f57634e487b7160e01b600052602260045260246000fd5b50919050565b6000600019821415611b9957611b99611bb4565b5060010190565b600082611baf57611baf611bca565b500690565b634e487b7160e01b600052601160045260246000fd5b634e487b7160e01b600052601260045260246000fd5b634e487b7160e01b600052604160045260246000fd5b6001600160e01b03198116811461083657600080fdfea264697066735822122099a4c4fa1fd237c7fbc16fbe9eacef116b3927397733e52ddac631b4f0385ac764736f6c63430008010033",
  "linkReferences": {},
  "deployedLinkReferences": {}
}